:060000000A128A110C280F
:10000800FE00030EF0000A08F1000A168A151D2DDD
:100018000A128A110F28FB018313CA308400EF30BB
:100028000A168A158A200A128A1183010A168A1169
:10003800972D83160313BE006B30B1004D2E25306B
:10004800450603192828292833283E08840045082E
:10005800831380000130A8002808BE074D2EB20186
:10006800B301831203136A0884000A128A112A272B
:100078000A128A112E3A031D42284328952883160E
:10008800031333170130A800280883120313EA0763
:1000980083160313BF01C00183280A30F200003021
:1000A800F300831603134008F5003F08F4000A160E
:1000B8008A1541210A128A11730883160313C00096
:1000C8007208BF00831203136A0884000A128A1197
:1000D8002A270A128A11D03E83160313A800FF307C
:1000E80003180030A9002808BF070318C00A290808
:1000F800C0070130A800280883120313EA078312F7
:100108006A0884000A128A112A270A128A110A1612
:100118008A15A7200A128A110318932894285128AF
:100128009D2883160313BF01C00133169D2833157C
:10013800BB28013083120313EA07FF306A078400E3
:100148000A128A112A270A128A1183160313C50074
:10015800A800A9012908003A0319B3284D2E280838
:10016800003A0319612E663A03199B284D2E003078
:100178003205A80007303305A90028082904031907
:10018800C628C7280A2E331ECA28CB28CF280630EF
:10019800BF000030C0003108840083130008C1008C
:1001A800840A0008C200840A0008C300840A000800
:1001B800C4000430A8002808B1074408F500430823
:1001C800F4004208F3004108F2000030F900003062
:1001D800F8000030F7000030F6000A168A15892565
:1001E8000A128A110318F928FA2817298316031303
:1001F8004408F5004308F4004208F3004108F200FF
:100208000A168A159C200A128A1175088316031388
:10021800C4007408C3007308C2007208C100033028
:10022800B2040030B30483160313B801B9014408BB
:10023800F5004308F4004208F3004108F2000030DA
:10024800F9000030F8000030F7000030F6000A1618
:100258008A1599220A128A11031833293429342A53
:10026800031083160313430D440D823EB800FF307C
:1002780003180030B900FF30B8070318B90AFF3077
:10028800B9070330F2000030F3003908F5003808E8
:10029800F4000A168A1541210A128A117308831676
:1002A8000313B9007208B8000A3083120313A000C0
:1002B8000030A10083160313390883120313A30027
:1002C80083160313380883120313A2000A168A152B
:1002D800B4240A128A118312031321088316031304
:1002E800B90083120313200883160313B800B91F3B
:1002F8007E297F298529FF30B8070318B90AFF30FE
:10030800B9073803FF3A0A128A159D240A128A117E
:1003180083120313450883160313BD0083120313C6
:10032800440883160313BC0083120313430883167F
:100338000313BB0083120313420883160313BA0086
:10034800440883120313AB00831603134308831274
:100358000313AA0083160313420883120313A90088
:1003680083160313410883120313A800831603138B
:100378003D0883120313AF00831603133C0883124E
:100388000313AE00831603133B0883120313AD0057
:10039800831603133A0883120313AC000A128A1552
:1003A80058210A128A11831203132B088316031388
:1003B800BD00831203132A0883160313BC0083129B
:1003C8000313290883160313BB0083120313280899
:1003D80083160313BA003D08F5003C08F4003B08F7
:1003E800F3003A08F2003F30F9008030F80000309E
:1003F800F7000030F6000A168A1589250A128A11B4
:100408000318072A082A112AFF3083160313B8078E
:100418000318B90AFF30B907342A831603133D08B5
:10042800F5003C08F4003B08F3003A08F2004130BC
:10043800F9002030F8000030F7000030F6000A1606
:100448008A1589250A128A11031C2B2A2C2A342A78
:10045800013083160313B8070318B90A0030B90727
:10046800831603134008803AFF0080307F02031D83
:100478003F2A0D303F020318422A432A8A2A83164C
:1004880003133F080A168A1132210A128A118312AD
:1004980003134508D9004408D8004308D700420888
:1004A800D60083160313440883120313DD00831652
:1004B8000313430883120313DC0083160313420853
:1004C80083120313DB0083160313410883120313FB
:1004D800DA000A168A113F230A128A1183120313BB
:1004E800590883160313C40083120313580883168C
:1004F8000313C30083120313570883160313C200A0
:1005080083120313560883160313C10083160313BB
:100518003908803AFF0080307F02031D952A0A308F
:1005280038020318982A992AEA2A831603134408DA
:10053800F5004308F4004208F3004108F2000030D7
:10054800F9000030F8000030F7000030F6000A1615
:100558008A1599220A128A110318B32AB42A5C2B25
:1005680083160313440883120313D8008316031356
:10057800430883120313D700831603134208831218
:100588000313D60083160313410883120313D500FF
:100598000A168A1103200A128A11831203135808B3
:1005A800570456045504031DDA2ADB2A5C2B8316EC
:1005B80003133908803AFF0080307F02031DE62AC2
:1005C80002303802031CE92AEA2A5C2B831603133B
:1005D8003D08F5003C08F4003B08F3003A08F20037
:1005E8004030F9008930F8007030F7005F30F600CD
:1005F8000A168A1589250A128A110318042B052B55
:100608000E2BF73083160313B8070318B90AFF3007
:10061800B907162BF83083160313B8070318B90A5D
:10062800FF30B90738080A128A159D240A128A1160
:1006380083120313450883160313BD0083120313A3
:10064800440883160313BC0083120313430883165C
:100658000313BB0083120313420883160313BA0063
:100668004408F5004308F4004208F3004108F2008A
:100678003D08F9003C08F8003B08F7003A08F60086
:100688000A128A15A0200A128A1175088316031304
:10069800B7007408B6007308B5007208B4000030DB
:1006A800C4000030C3000030C2000030C100C22BBB
:1006B80083160313440883120313D8008316031305
:1006C800430883120313D7008316031342088312C7
:1006D8000313D60083160313410883120313D500AE
:1006E8000A168A1103200A128A1183120313580862
:1006F80083160313B70083120313570883160313D3
:10070800B60083120313560883160313B500831229
:100718000313550883160313B4003708F500360889
:10072800F4003508F3003408F20000300A128A1188
:1007380066260A128A11750883160313A300740823
:10074800A2007308A1007208A0004408A70043088B
:10075800A6004208A5004108A4000A168A15E92245
:100768000A128A11831603132308C4002208C3003F
:100778002108C2002008C100B801B901C501C50A95
:100788004508A80001300310A80DFF3E031DC72B24
:100798000310280D693E84000A128A112A270A12BA
:1007A8008A11A9000A128A112A270A128A11AA0094
:1007B8000A128A112A270A128A11AB000A128A1110
:1007C8002A270A128A11AC002C083702031DF62BBF
:1007D8002B083602031DF62B2A083502031DF62BBB
:1007E800290834020318F92BFA2BFB2B052C0130AE
:1007F800A8002808C5070A304506031D042C052C47
:10080800C42B03303205A80000303305A90028089E
:1008180029040319102C112C7F2C3E0884002D303C
:10082800831380000130A8002808BE077F2C4508E4
:10083800A80001300310A80DFF3E031D1E2C031055
:10084800280D693E84000A128A112A270A128A1181
:10085800F2000A128A112A270A128A11F3000A12D0
:100868008A112A270A128A11F4000A128A112A27E1
:100878000A128A11F5003708F9003608F800350819
:10088800F7003408F6000A168A154C240A128A1151
:10089800750883160313BD007408BC007308BB00F9
:1008A8007208BA000030F5000030F4000030F300A0
:1008B8000A30F2003D08F9003C08F8003B08F70050
:1008C8003A08F6000A168A1539230A128A11750899
:1008D80083160313BD007408BC007308BB007208BC
:1008E800BA003E0884003A08303E83138000013085
:1008F800A8002808BE070130C502450A031D852C3B
:10090800862C1B2C982C831603133E088400303049
:10091800831380000130A8002808BE07FF30B807FD
:100928000318B90AFF30B9073908803AFF00803048
:100938007F02031DA12C013038020318A42CA52C1A
:10094800872C831603134008803AFF0080307F020B
:10095800031DB02C09303F02031CB32CB42CB92C56
:10096800083083160313C500BD2C831603133F08F4
:10097800C5004508A800A9012808BF022908031CCA
:10098800C003C00245080319CA2CCB2CD42C3E083E
:1009980084002E30831380000130A8002808BE0789
:1009A80045080A128A159D240A128A118312031314
:1009B800450883160313B0008312031344088316F3
:1009C8000313AF0083120313430883160313AE0007
:1009D80083120313420883160313AD0030088312F1
:1009E8000313AF00831603132F0883120313AE00FB
:1009F800831603132E0883120313AD008316031303
:100A08002D0883120313AC008316031344088312C2
:100A18000313AB0083160313430883120313AA00BE
:100A280083160313420883120313A90083160313C2
:100A3800410883120313A8000A128A1558210A12C2
:100A48008A11831203132B08D8002A08D700290813
:100A5800D6002808D5000A168A1103200A128A111E
:100A680083120313580883160313B7008312031362
:100A7800570883160313B600831203135608831608
:100A88000313B50083120313550883160313B40028
:100A9800EC2D4508A80001300310A80DFF3E031DEA
:100AA800502D0310280D693E84000A128A112A2746
:100AB8000A128A11F2000A128A112A270A128A11C6
:100AC800F3000A128A112A270A128A11F4000A125C
:100AD8008A112A270A128A11F5003708F900360800
:100AE800F8003508F7003408F6000A168A154C2471
:100AF8000A128A11750883160313BD007408BC0016
:100B08007308BB007208BA000030F5000030F4002A
:100B18000030F3000A30F2003D08F9003C08F80004
:100B28003B08F7003A08F6000A168A1539230A1214
:100B38008A11750883160313BD007408BC00730876
:100B4800BB007208BA003E0884003A08303E83139E
:100B580080000130A8002808BE074508A800013019
:100B68000310A80DFF3E031DB42D0310280D693E88
:100B780084000A128A112A270A128A11F2000A121C
:100B88008A112A270A128A11F3000A128A112A27BF
:100B98000A128A11F4000A128A112A270A128A11E3
:100BA800F5003708F9003608F8003508F70034086A
:100BB800F6000A168A1539230A128A11750883164F
:100BC8000313B7007408B6007308B5007208B400C0
:100BD8000130C502450A031DF22DF32D4D2D032EBC
:100BE8003E0884003030831380000130A8002808B4
:100BF800BE07FF30BF070318C00AFF30C0073F0811
:100C08004004031D082E092EF42D4D2E3F084004E4
:100C1800031D0F2E102E1E2E3708360435043404FB
:100C2800031D172E182E1E2E0130BF070318C00AE9
:100C38000030C0074008803A803C031D252E3F083D
:100C480045020318282E292E2A2E392E831603131F
:100C58004008803AA80080302802031D352E450838
:100C68003F020318382E392E392E0330831603130A
:100C78003205A80000303305A90028082904031903
:100C8800462E472E4D2E3E0884002D3083138000BB
:100C98002E28013083120313EA07FF306A07840005
:100CA8000A128A112A270A128A1183160313C50009
:100CB8004508031D602E612E23283E0884008313F7
:100CC8008001080083120313A000200803196D2E69
:100CD8006E2E822EF51F712E722E822E7209A200A0
:100CE8007309A3007409A4007509A500A20A0319D1
:100CF800A30A0319A40A0319A50A8A2E7508A500D0
:100D08007408A4007308A3007208A200750874048C
:100D180073047204031D912E922E9B2E0030F50051
:100D28000030F4000030F3000030F2001F2F96303E
:100D3800A100AB2E0130F6007608A10701300310A0
:100D4800A50CA40CA30CA20CFF3E031DA32EFE3081
:100D58002505031DB02EB12E9E2ECD2E0130F60096
:100D68007608A1070130A207003003180130A30755
:100D7800003003180130A407003003180130A5071C
:100D880001300310A50CA40CA30CA20CFF3E031DFC
:100D9800C52EFF302505031DD22ED32EB22EDF2EF1
:100DA8000130A1020130F6000310A20DA30DA40D1D
:100DB800A50DF60BD82EA41BE22EE32EE92E023049
:100DC80021020318E82EE92ED42E2118EC2EED2E40
:100DD800F52EFF30A205FF30A3057F30A405FF30B4
:100DE800A5050310A10C2108F600F701F801F90187
:100DF80018300310F60DF70DF80DF90DFF3E031D21
:100E0800FD2E7608A2047708A3047808A4047908BC
:100E1800A50420080319112F122F172FF51F152FBE
:100E2800162F172FA5172508F5002408F400230806
:100E3800F3002208F2000800FF1B2A2F83137F18F3
:100E480083170008840A0319FF0A080007308A007C
:100E58000408840A820700340034003480343F34A4
:100E6800003400342034413400340034C83442346F
:100E7800003400347A344434003440341C3446346A
:100E880000345034C334473400342434743449347F
:100E98008034963418344B342034BC34BE344C344B
:100EA80028346B346E344E34F934023415345034EB
:100EB800EC347834AD346034CA34F23449347134A3
:100EC8000034003480343F34CD34CC34CC343D3419
:100ED8000A34D73423343C346F34123483343A34EC
:100EE8001734B734D1343834AC34C53427343734B4
:100EF800BD343734863435349534BF34D63433343E
:100F08007734CC342B3432345F3470348934303411
:100F1800FF34E634DB342E340834E5343C341E34F4
:100F280060344234A2340D340134003400340034C7
:100F38000A3400340034003464340034003400349B
:100F4800E8340334003400341034273400340034D7
:100F5800A034863401340034403442340F34003431
:100F680080349634983400340034E134F534053450
:100F78000034CA349A343B340D34533469346734FA
:100F88006E346F340D34003425342E3432346634E4
:100F9800003443344F344E34003453343134003445
:100FA80053343234003456340034FA00F601F70171
:100FB8007208F400F5017408F8007508F9007A1C45
:100FC800E62FE72FED2F7808F6070318F70A7908B8
:100FD800F70701300310F80DF90DFF3E031DEE2F42
:100FE8000310FA0C7A08031DFA2FFB2FE32F77085A
:100FF800F3007608F200080083160313981683128C
:1010080003130C120800831203135F086004031D06
:101018000E280F284528C3309F054130831203133B
:10102800E100E10B15281828831203139F149F1859
:101038001E281F281B280C131E08E100E201E301EB
:10104800E4016408F5006308F4006208F30061082D
:10105800F20000300A128A1166260A128A157508EB
:1010680083160313CD007408CC007308CB007208F4
:10107800CA00413083120313E100E10B41284428E0
:101088007C285F036004031D4A284B287C281F081E
:10109800C33904389F00413083120313E100E10B88
:1010A80053285628831203139F149F185C285D2821
:1010B80059280C131E08E100E201E301E401640869
:1010C800F5006308F4006208F3006108F2000030DC
:1010D8000A128A1166260A128A15750883160313DE
:1010E800CD007408CC007308CB007208CA003D28F4
:1010F800831603134D0883120313D80083160313B2
:101108004C0883120313D700831603134B0883126A
:101118000313D600831603134A0883120313D5005A
:101128000A168A1103200A128A1583120313560815
:10113800E0005508DF0008000310740D750D8312D8
:101148000313A5002508031DAA28AB28B4280030DE
:10115800F5000030F4000030F3000030F2005729A9
:101168000310780D790DA4002408031DBC28BD28A0
:10117800BE28AB28F417FF30F205FF30F305FF3027
:10118800F4050030F505F817FF30F605FF30F705D0
:10119800FF30F8050030F9050030A3000030A20048
:1011A8000030A1000030A0007F30A502A030240745
:1011B800FA007A08A5022030A4000130FA000310D2
:1011C800A00DA10DA20DA30DFA0BE3287908750255
:1011D800031DF82878087402031DF828770873029D
:1011E800031DF82876087202031CFB28FC280B292B
:1011F8007608F2027708031C770FF3027808031CBD
:10120800780FF4027908031C790FF50220140130D5
:10121800FA000310F20DF30DF40DF50DFA0B0D297C
:101228000130A402031D19291A29E128A51F1D2927
:101238001E2938292508803A9F3E03182429252984
:101248002629AB2801300310A30CA20CA10CA00C7A
:10125800FF3E031D27290130FA007A08A507031D60
:101268003629372926294F2920302502031C3D29F4
:101278003E294A29AB280130FA000310A00DA10D20
:10128800A20DA30DFA0B41290130A5022508031D63
:101298004E294F293F292308F5002208F400210888
:1012A800F3002008F2000800831203132B0880398A
:1012B800B5002B08B0003007BB00AA1F64296529B8
:1012C80066293B143B0803196A296B297A293B0ACA
:1012D800031D6F29702978290030AB000030AA005F
:1012E8000030A9000030A800AA1782290030AB00FE
:1012F8000030AA000030A9000030A8002F0880396B
:10130800B0003008B5062F08B0003007BA00AE1F8D
:101318008E298F2990293A143A0803199429952976
:10132800A4293A0A031D99299A29A2290030AF0055
:101338000030AE000030AD000030AC00AE17AC2974
:101348000030AF000030AE000030AD000030AC001F
:101358003A080319B029B129B6293B08031DB52954
:10136800B629BF290030AB000030AA000030A90020
:101378000030A8009C2C2808F2002E080A128A11B6
:10138800D9270A128A15730883120313C100720839
:10139800C0004008B000B101B201B3013308B90080
:1013A8003208B8003108B7003008B6004108B0006C
:1013B800B101B201B3013308BF003208BE003108E1
:1013C800BD003008BC002908F2002D080A128A1155
:1013D800D9270A128A15730883120313C1007208E9
:1013E800C0004008B000B101B201B3013008B6072F
:1013F800310803110318013E0319032AB7073208FD
:1014080003110318013E03190A2AB8073308031108
:101418000318013E0319112AB9074108B000B101A8
:10142800B201B3013008BC07310803110318013EAB
:1014380003191F2ABD07320803110318013E0319B7
:10144800262ABE07330803110318013E03192D2A63
:10145800BF072A08F2002C080A128A11D9270A1293
:101468008A15730883120313C1007208C00040086C
:10147800B000B101B201B3013008B6073108031159
:101488000318013E0319492AB70732080311031844
:10149800013E0319502AB807330803110318013E07
:1014A8000319572AB9074108B000B101B201B301C5
:1014B8003008BC07310803110318013E0319652AD7
:1014C800BD07320803110318013E03196C2ABE0731
:1014D800330803110318013E0319732ABF070830A4
:1014E800B0000310B60DB70DB80DB90DB00B752AC5
:1014F8002908F2002C080A128A11D9270A128A151B
:10150800730883120313C1007208C0004008B000BA
:101518004108B100B201B3013008B6073108031120
:101528000318013E0319992AB70732080311031853
:10153800013E0319A02AB807330803110318013E16
:101548000319A72AB9072808F2002D080A128A11D8
:10155800D9270A128A15730883120313C100720867
:10156800C0004008B0004108B100B201B301300822
:10157800B607310803110318013E0319C42AB70737
:10158800320803110318013E0319CB2AB8073308A0
:1015980003110318013E0319D22AB9070830B00015
:1015A8000310B60DB70DB80DB90DB00BD42A280825
:1015B800F2002C080A128A11D9270A128A15730810
:1015C80083120313C1007208C0004008B00041082C
:1015D800B100B201B3013008B6073108031103188E
:1015E800013E0319F82AB707320803110318013E10
:1015F8000319FF2AB807330803110318013E03191A
:10160800062BB9072908F2002E080A128A11D927D1
:101618000A128A15730883120313C1007208C000E6
:101628004008B0004108B100B201B3013008BC075E
:10163800310803110318013E0319232BBD07320893
:1016480003110318013E03192A2BBE07330803119F
:101658000318013E0319312BBF072A08F2002D0891
:101668000A128A11D9270A128A15730883120313DA
:10167800C1007208C0004008B0004108B100B201C2
:10168800B3013008BC07310803110318013E0319E0
:101698004E2BBD07320803110318013E0319552BC1
:1016A800BE07330803110318013E03195C2BBF075B
:1016B8002A08F2002E080A128A11D9270A128A1556
:1016C800730883120313C1007208C0004008B000F9
:1016D8004108B100B201B30108300310B00DB10DDB
:1016E800B20DB30DFF3E031D712B3008BC07310846
:1016F80003110318013E0319822BBD073208031199
:101708000318013E0319892BBE0733080311031878
:10171800013E0319902BBF073608B0003708B10007
:101728003808B2003908B30018300310B30CB20CF3
:10173800B10CB00CFF3E031D992B3008BC073108D3
:1017480003110318013E0319AA2BBD073208031120
:101758000318013E0319B12BBE0733080311031800
:10176800013E0319B82BBF070830B0000310B60DAF
:10177800B70DB80DB90DB00BBA2B3B083A07B0003E
:10178800B101B10D3008823EC00031080318013E96
:10179800FF3EC100EC2B0130B0000310BC0DBD0DA5
:1017A800BE0DBF0DB00BD12BB91FDB2BDC2BDD2BF6
:1017B8003C140130B0000310B60DB70DB80DB90DCB
:1017C800B00BDF2BFF30C0070318C10AFF30C10779
:1017D800BE1FEF2BF02BCF2BBA01B91FF42BF52B23
:1017E800112CFF303605B000FF303705B100FF304F
:1017F8003805B2007F303905B300330832043104AC
:1018080030040319082C092C0C2CBA01BA0A112C23
:101818003C1C0F2C102C112C092C3A080319152CE0
:10182800162C472C0130BC07003003180130BD07C7
:10183800003003180130BE07003003180130BF071D
:101848003F1C272C282C472C3C08B0003D08B10031
:101858003E08B2003F08B3000130B400330DB30CAA
:10186800B20CB10CB00CB40B322C3308BF003208E8
:10187800BE003108BD003008BC000130C0070318A5
:10188800C10A0030C1074108803AFF0080307F025A
:10189800031D502CFF304002031C532C542C5F2C8A
:1018A8007F3083120313BF008030BE000030BD00BC
:1018B8000030BC00902C831203134108803AFF00CB
:1018C80080307F02031D6A2C0130400203186D2C02
:1018D8006E2C7A2C003083120313BF000030BE0038
:1018E8000030BD000030BC00B501902C83120313FA
:1018F8004008BB00FF30BC05FF30BD057F30BE058A
:101908000030BF053B1C892C8A2C8B2CBE173B084A
:10191800B0000310300CBF003508B0003008BF0419
:101928003F08AB003E08AA003D08A9003C08A800F3
:10193800080083120313D400D41FA32CA42C532E05
:10194800D409D40A5408803A123E031CAC2CAD2C9E
:10195800972D0A30A0000030A1005408F400F501CA
:10196800F41BF5036430F2000030F3000A168A1500
:101978008F230A128A15730883120313A3007208AF
:10198800A2000A168A15B4240A128A1583120313B0
:101998002008C60001300310C60DFF3E031DCF2CE2
:1019A8000310460D593E84000A128A112A270A128A
:1019B8008A15C7000A128A112A270A128A15C8002E
:1019C8000A128A112A270A128A15C9000A128A11CC
:1019D8002A270A128A15CA004A08AB004908AA0031
:1019E8004808A9004708A8006430A0000030A100FA
:1019F8005408A200A301A21BA3030A168A15B42443
:101A08000A128A15831203132008CB000130031031
:101A1800CB0DFF3E031D0B2D03104B0D7D3E8400A7
:101A28000A128A112A270A128A15CC000A128A1168
:101A38002A270A128A15CD000A128A112A270A12A1
:101A48008A15CE000A128A112A270A128A15CF008F
:101A58004F08AF004E08AE004D08AD004C08AC0072
:101A68000A128A1558210A128A15831203132B08A1
:101A7800D3002A08D2002908D1002808D0000A304B
:101A8800F2000030F3005408F400F501F41BF503EC
:101A98000A168A158F230A128A15720883120313ED
:101AA800C60001300310C60DFF3E031D562D03105E
:101AB800460D353E84000A128A112A270A128A1511
:101AC800C7000A128A112A270A128A15C8000A12A0
:101AD8008A112A270A128A15C9000A128A112A2786
:101AE8000A128A15CA004A08AB004908AA00480821
:101AF800A9004708A8005308AF005208AE005108D3
:101B0800AD005008AC000A128A1558210A128A152D
:101B1800831203132B08C5002A08C4002908C30030
:101B28002808C200FF2F5408803A753E031C9D2DDB
:101B38009E2D262E0A30F2000030F3005408F400DF
:101B4800F501F41BF5030A168A158F230A128A1564
:101B5800720883120313C60001300310C60DFF3E3E
:101B6800031DB12D0310460D353E84000A128A115B
:101B78002A270A128A15C7000A128A112A270A1266
:101B88008A15C8000A128A112A270A128A15C9005A
:101B98000A128A112A270A128A15CA004A08AB00B3
:101BA8004908AA004808A9004708A8000A30A00068
:101BB8000030A1005408A200A301A21BA3030A1627
:101BC8008A15B4240A128A15831203132008CB003D
:101BD80001300310CB0DFF3E031DED2D03104B0DFF
:101BE800593E84000A128A112A270A128A15CC0043
:101BF8000A128A112A270A128A15CD000A128A1196
:101C08002A270A128A15CE000A128A112A270A12CE
:101C18008A15CF004F08AF004E08AE004D08AD0042
:101C28004C08AC000A128A1558210A128A15831228
:101C380003132B08C5002A08C4002908C300280874
:101C4800C200FF2F5408C60001300310C60DFF3E26
:101C5800031D292E0310460D353E84000A128A11F1
:101C68002A270A128A15C7000A128A112A270A1275
:101C78008A15C8000A128A112A270A128A15C90069
:101C88000A128A112A270A128A15CA004A08C500A8
:101C98004908C4004808C3004708C200FF2F540879
:101CA800803A123E031C592E5A2E442F0A30A000A7
:101CB8000030A1005408F400F501F41BF50364306A
:101CC800F2000030F3000A168A158F230A128A15CB
:101CD800730883120313A3007208A2000A168A1558
:101CE800B4240A128A15831203132008C60001308F
:101CF8000310C60DFF3E031D7C2E0310460D253E26
:101D080084000A128A112A270A128A15C7000A12A1
:101D18008A112A270A128A15C8000A128A112A2744
:101D28000A128A15C9000A128A112A270A128A1564
:101D3800CA004A08AB004908AA004808A900470891
:101D4800A8006430A0000030A1005408A200A3013C
:101D5800A21BA3030A168A15B4240A128A15831231
:101D680003132008CB0001300310CB0DFF3E031DE9
:101D7800B82E03104B0D493E84000A128A112A27F7
:101D88000A128A15CC000A128A112A270A128A1501
:101D9800CD000A128A112A270A128A15CE000A12C1
:101DA8008A112A270A128A15CF004F08AF004E0859
:101DB800AE004D08AD004C08AC000A128A15582137
:101DC8000A128A15831203132B08D3002A08D2009B
:101DD8002908D1002808D0000A30F2000030F300AA
:101DE8005408F400F501F41BF5030A168A158F232D
:101DF8000A128A15720883120313C60001300310F1
:101E0800C60DFF3E031D032F0310460D013E84003F
:101E18000A128A112A270A128A15C7000A128A1179
:101E28002A270A128A15C8000A128A112A270A12B2
:101E38008A15C9000A128A112A270A128A15CA00A5
:101E48004A08AB004908AA004808A9004708A800A2
:101E58005308AF005208AE005108AD005008AC005E
:101E68000A128A1558210A128A15831203132B089D
:101E7800C5002A08C4002908C3002808C200FF2F8B
:101E88005408803A753E031C4A2F4B2FD32F0A3033
:101E9800F2000030F3005408F400F501F41BF503D8
:101EA8000A168A158F230A128A15720883120313D9
:101EB800C60001300310C60DFF3E031D5E2F031040
:101EC800460D013E84000A128A112A270A128A1531
:101ED800C7000A128A112A270A128A15C8000A128C
:101EE8008A112A270A128A15C9000A128A112A2772
:101EF8000A128A15CA004A08AB004908AA0048080D
:101F0800A9004708A8000A30A0000030A100540822
:101F1800A200A301A21BA3030A168A15B4240A125D
:101F28008A15831203132008CB0001300310CB0D50
:101F3800FF3E031D9A2F03104B0D253E84000A1205
:101F48008A112A270A128A15CC000A128A112A270E
:101F58000A128A15CD000A128A112A270A128A152E
:101F6800CE000A128A112A270A128A15CF004F08B2
:101F7800AF004E08AE004D08AD004C08AC000A1288
:101F88008A1558210A128A15831203132B08C500D3
:101F98002A08C4002908C3002808C200FF2F5408D3
:101FA800C60001300310C60DFF3E031DD62F0310D7
:101FB800460D013E84000A128A112A270A128A1540
:101FC800C7000A128A112A270A128A15C8000A129B
:101FD8008A112A270A128A15C9000A128A112A2781
:101FE8000A128A15CA004A08C5004908C4004808E8
:081FF800C3004708C200080005
:10200600031083120313570D580DDE005E08031DDF
:102016000D280E2817280030D8000030D7000030D1
:10202600D6000030D5007A285508D9005608DA00BF
:102036005708DB005808DC001F300310DC0CDB0CF3
:10204600DA0CD90CFF3E031D20285908DD00D717EE
:10205600FF30D505FF30D605FF30D7050030D8054F
:102066009630DE02DE1F3828392853285E08803A6B
:10207600973E03183F28402841280E2801300310B8
:10208600D80CD70CD60CD50CFF3E031D42280130C8
:10209600D9005908DE07031D5128522841286A280D
:1020A60020305E02031C5828592865280E28013066
:1020B600D9000310D50DD60DD70DD80DD90B5C2838
:1020C6000130DE025E08031D69286A285A285D0869
:1020D60003196E286F287A28D509D609D709D80991
:1020E600D50A0319D60A0319D70A0319D80A08000C
:1020F600720883120313A0007308A1007408A200DB
:102106000310210D220DA8002808031D8B288C28FA
:1021160095280030F5000030F4000030F300003060
:10212600F20031297608A0007708A1007808A200FD
:102136000310210D220DA7002708031DA328A4289C
:10214600A5288C28F317FF30F205FF30F305003081
:10215600F405F717FF30F605FF30F7050030F805F0
:102166000030A6000030A5000030A4000030A30017
:102176007F30A80298302707A0002008A802183050
:10218600A7000130A0000310A30DA40DA50DA60DF8
:10219600A00BC62878087402031DD7287708730297
:1021A600031DD72876087202031CDA28DB28E628E6
:1021B6007608F2027708031C770FF3027808031CEF
:1021C600780AF402231401300310F20DF30DF40D16
:1021D600FF3E031DE7280130A702031DF328F4285C
:1021E600C428A81FF728F82812292808803A973EFD
:1021F6000318FE28FF2800298C2801300310A60C9E
:10220600A50CA40CA30CFF3E031D01290130A00060
:102216002008A807031D102911290029292918308B
:102226002802031C1729182924298C280130A0000C
:102236000310A30DA40DA50DA60DA00B1B2901309F
:10224600A8022808031D2829292919292608F50086
:102256002508F4002408F3002308F200080083127E
:102266000313D5006E305502031C3A293B294A2A2E
:102276003F30AB000030AA000030A9000030A800B3
:102286006430F2000030F3005508C600C701460866
:10229600F4004708F5000A168A150F220A168A1155
:1022A600720883120313C80001300310C80DFF3EE5
:1022B600031D58290310480D7D3E84000A128A1119
:1022C6002A270A168A11C9000A128A112A270A160B
:1022D6008A11CA000A128A112A270A168A11CB0005
:1022E6000A128A112A270A168A11CC004C08AF0056
:1022F6004B08AE004A08AD004908AC000A128A1520
:1023060058210A168A11831203132B08D4002A08AF
:10231600D3002908D2002808D1000A30F200003084
:10232600F3005508C600C7014608A2004708A300E7
:102336006430A0000030A1000A168A1595210A16FD
:102346008A11831203132108F5002008F4000A16E7
:102356008A150F220A168A11720883120313C800FF
:1023660001300310C80DFF3E031DB4290310480DAC
:10237600593E84000A128A112A270A168A11C900B0
:102386000A128A112A270A168A11CA000A128A1103
:102396002A270A168A11CB000A128A112A270A1638
:1023A6008A11CC004C08AB004B08AA004A08A900C9
:1023B6004908A8005408AF005308AE005208AD0003
:1023C6005108AC000A128A1558210A168A1183127E
:1023D60003132B08D0002A08CF002908CE002808AE
:1023E600CD000A30A0000030A1005508C600C70184
:1023F6004608A2004708A3000A168A1595210A1660
:102406008A11831203132008C80001300310C80D77
:10241600FF3E031D092A0310480D353E84000A12AB
:102426008A112A270A168A11C9000A128A112A272E
:102436000A168A11CA000A128A112A270A168A114E
:10244600CB000A128A112A270A168A11CC004C08D8
:10245600AB004B08AA004A08A9004908A800500882
:10246600AF004F08AE004E08AD004D08AC000A1292
:102476008A1558210A168A11831203132B08C500E0
:102486002A08C4002908C3002808C2003E2B0B30C6
:102496005502031C4F2A502AFB2A3F30AB0000305E
:1024A600AA000030A9000030A8000A30F20000306F
:1024B600F3005508C600C7014608F4004708F500B2
:1024C6000A168A150F220A168A1172088312031336
:1024D600C80001300310C80DFF3E031D6D2A03100E
:1024E600480D593E84000A128A112A270A168A11B3
:1024F600C9000A128A112A270A168A11CA000A1264
:102506008A112A270A168A11CB000A128A112A274B
:102516000A168A11CC004C08AF004B08AE004A08D8
:10252600AD004908AC000A128A1558210A168A110C
:10253600831203132B08D4002A08D3002908D200DB
:102546002808D1000A30A0000030A1005508C600B6
:10255600C7014608A2004708A3000A168A15952156
:102566000A168A11831203132008C80001300310CB
:10257600C80DFF3E031DBA2A0310480D353E8400E0
:102586000A128A112A270A168A11C9000A128A1102
:102596002A270A168A11CA000A128A112A270A1637
:1025A6008A11CB000A128A112A270A168A11CC0030
:1025B6004C08AB004B08AA004A08A9004908A80025
:1025C6005408AF005308AE005208AD005108AC00E5
:1025D6000A128A1558210A168A11831203132B0828
:1025E600C5002A08C4002908C3002808C2003E2BDB
:1025F6003F30AB000030AA000030A9000030A80030
:102606005508C60001300310C60DFF3E031D062BFC
:102616000310460D353E84000A128A112A270A162F
:102626008A11C7000A128A112A270A168A11C800B7
:102636000A128A112A270A168A11C9000A128A1151
:102646002A270A168A11CA004A08AF004908AE00AE
:102656004808AD004708AC000A128A1558210A1628
:102666008A11831203132B08C5002A08C4002908FF
:10267600C3002808C20008008312031359088039D2
:10268600E6005908DE005E07E800D81F4B2B4C2BEE
:102696004D2B681468080319512B522B622B680ABC
:1026A600031D562B572B5F2B0030D9000030D80066
:1026B6000030D7000030D600D817D9016A2B003079
:1026C600D9000030D8000030D7000030D6005D08B1
:1026D6008039E700670866060319722B732B742B83
:1026E60066175D08DE005E07E700DC1F7B2B7C2B90
:1026F6007D2B671467080319812B822B922B670A9F
:10270600031D862B872B8F2B0030DD000030DC006D
:102716000030DB000030DA00DC17DD019A2B0030D8
:10272600DD000030DC000030DB000030DA00680835
:10273600670203189F2BA02BC62B661FA32BA42B67
:10274600A82B8030DE005E08E6066808E900670808
:10275600E8006908E7005608E9005A08D600690843
:10276600DA005708E9005B08D7006908DB0058085B
:10277600E9005C08D8006908DC005908E9005D0832
:10278600D9006908DD00E9016708DE00DF015F089E
:10279600E10068085E02E000031CE1036108803A7C
:1027A600FF0080307F02031DDA2B1A306002031C03
:1027B600DD2BDE2B152C83120313590858045704FE
:1027C6005604031DE72BE92B0130EA2B0030E90004
:1027D6000030D9000030D8000030D7000030D600D5
:1027E6006708E8001D2C691CF92BFA2B012C6908D7
:1027F600DE0003105E0C0138E900032C0310E90C1F
:10280600561C062C072C082CE9170130DE00590D42
:10281600D90CD80CD70CD60CDE0B0A2C0130DE00F6
:102826005E08E8078312031367086802031C1C2C62
:102836001D2CF62B661B202C212C6A2C6808031DE8
:10284600252C262C2F2C0030D9000030D800003043
:10285600D7000030D600962D5A08D6075B0803111C
:102866000318013E0319382CD7075C080311031817
:10287600013E03193F2CD8075D0803110318013EDA
:102886000319462CD907591C492C4A2C1E2D691CA4
:102896004D2C4E2C552C6908DE0003105E0C0138B9
:1028A600E900572C0310E90C561C5A2C5B2C5C2CA7
:1028B600E9170130DE00590DD90CD80CD70CD60C0F
:1028C600DE0B5E2C0130DE005E08E8071E2D59087F
:1028D600803AFF005D08803A7F02031D7C2C5C086D
:1028E6005802031D7C2C5B085702031D7C2C5A08DA
:1028F600560203187F2C802CD82CFF30DE00FF30C8
:10290600DF00FF30E000FF30E1005A08E2005B081C
:10291600E3005C08E4005D08E5005608E20257089B
:10292600031C570F972C982CE3025808031C580FCA
:102936009D2C9E2CE4025908031C590FA32CA42C91
:10294600E5026208DE0763080318630FAB2CAC2CA4
:10295600DF0764080318640FB12CB22CE007650882
:102966000318650AE1076108D9006008D8005F0806
:10297600D7005E08D6008030DE005E08E606E9096C
:10298600E90A6908031DC82CC92CE62C0130D607B4
:10299600003003180130D707003003180130D8077C
:1029A600003003180130D907E62C5A08D6025B0816
:1029B600031C5B0FD7025C08031C5C0FD8025D0882
:1029C600031C5D0FD9025908580457045604031D09
:1029D600ED2CEE2C1A2D6908031DF22CF32C1A2D62
:1029E6000030D9000030D8000030D7000030D600C3
:1029F600962D0130DE000310D60DD70DD80DD90D5A
:102A0600DE0BFE2CE91F082D092D0A2D5614691C14
:102A16000D2D0E2D112D0314E90D132D0310E90DA7
:102A260068080319172D182D1A2D0130E802D81F32
:102A36001D2D1E2DFC2CE701E91F222D232D312DE6
:102A460069087F390319282D292D2C2DE701E70A5E
:102A5600312D561C2F2D302D312D292D67080319A8
:102A6600352D362D6A2D0130D6070030031801307A
:102A7600D707003003180130D8070030031801309B
:102A8600D907591C472D482D6A2D5608DE005708D0
:102A9600DF005808E0005908E1000130E200610D4E
:102AA600E10CE00CDF0CDE0CE20B522D6108D900C4
:102AB6006008D8005F08D7005E08D600680A0319C8
:102AC600652D662D6A2D0130DE005E08E807680A6E
:102AD60003196E2D6F2D742D6808031D732D742D2B
:102AE600822D0030D9000030D8000030D7000030E9
:102AF600D6006808031D802D812D822DE601681CF5
:102B0600852D862D882DD8178C2D7F30DE005E080A
:102B1600D8056808DE0003105E0CD900E61F942D68
:102B2600952D962DD91708000A168A1566210A16BC
:102B36008A110A168A15CF200A168A110A168A15CC
:102B4600E8230A168A110A168A1583200A168A119C
:102B56008030F2002530F3000A128A1500200A168A
:102B66008A118030F2002530F3000A168A15922069
:102B76000A168A1183160313DE01DF0191300A1645
:102B86008A1520210A168A110230F60001300A162B
:102B96008A1500210A168A11A230F5008030F60047
:102BA6000A168A1553220A168A110830F6000130D1
:102BB6000A168A1500210A168A11A530F5008030FA
:102BC600F6000A168A1553220A168A110E30F600E6
:102BD60001300A168A1500210A168A119E30F50060
:102BE6008030F6000A168A1553220A168A11F60153
:102BF600F60A02300A168A1500210A168A110030D2
:102C060083120313DF00E0000A128A1507200A1652
:102C16008A11831203135F0883160313C6008312F7
:102C26000313600883160313C7000030C71BFF3069
:102C3600C800C9004908F5004808F4004708F30031
:102C46004608F20001300A128A1166260A168A110F
:102C5600750883160313DD007408DC007308DB00B7
:102C66007208DA00433083120313C5007F30C400B4
:102C76000030C3000030C2004030AB00A030AA00D4
:102C86000030A9000030A800831603135D088312E4
:102C96000313AF00831603135C0883120313AE00FD
:102CA600831603135B0883120313AD008316031305
:102CB6005A0883120313AC000A128A1558210A1601
:102CC6008A11831203132B08C9002A08C800290891
:102CD600C7002808C6000A168A152D260A168A1164
:102CE60083120313450883160313D90083120313B3
:102CF600440883160313D80083120313430883166C
:102D06000313D70083120313420883160313D60056
:102D1600993083120313EA008316031359088312AA
:102D26000313EE0083160313580883120313ED00F2
:102D360083160313570883120313EC008316031339
:102D4600560883120313EB00EB300A128A111D207A
:102D56000A168A11EB30F5000030F6000A168A15BD
:102D660053220A168A11A830F5008030F6000A169A
:102D76008A1553220A168A110730F60002300A16FF
:102D86008A1500210A168A11013083120313DF0007
:102D96000030E0000A128A1507200A168A118312EB
:102DA60003135F0883160313C60083120313600818
:102DB60083160313C7000030C71BFF30C800C900C5
:102DC6004908F5004808F4004708F3004608F200F1
:102DD60001300A128A1166260A168A1175088316A8
:102DE6000313DD007408DC007308DB007208DA00E8
:102DF600433083120313C5007F30C4000030C30084
:102E06000030C2004030AB00A030AA000030A9005C
:102E16000030A800831603135D0883120313AF0066
:102E2600831603135C0883120313AE008316031381
:102E36005B0883120313AD00831603135A0883122B
:102E46000313AC000A128A1558210A168A11831236
:102E560003132B08C9002A08C8002908C700280838
:102E6600C6000A168A152D260A168A11831203131E
:102E7600450883160313D5008312031344088316EB
:102E86000313D40083120313430883160313D300DA
:102E960083120313420883160313D2009930831258
:102EA6000313EA0083160313550883120313EE0077
:102EB60083160313540883120313ED0083160313BA
:102EC600530883120313EC0083160313520883126C
:102ED6000313EB00E7300A128A111D200A168A1125
:102EE600E730F5000030F6000A168A1553220A1656
:102EF6008A11A830F5008030F6000A168A1553228A
:102F06000A168A110E30F60002300A168A150021BA
:102F16000A168A116430F2000030F3008316031398
:102F26005F08F5005E08F4000A168A150F220A16D5
:102F36008A11720883160313E6000A3083120313FC
:102F4600A0000030A1000A30F2000030F300831622
:102F560003135F08F5005E08F4000A168A150F22AF
:102F66000A168A11730883120313A3007208A200BB
:102F76000A168A1595210A168A1183120313200848
:102F860083160313E5000A3083120313A0000030F2
:102F9600A100831603135F0883120313A30083168D
:102FA60003135E0883120313A2000A168A159521DD
:102FB6000A168A1183120313200883160313E400EA
:102FC6006608303E0A168A15B9200A168A11831633
:102FD60003136508303E0A168A15B9200A168A11A7
:102FE600831603136408303E0A168A15B9200A169A
:0A2FF6008A11C72D0A128A110C2857
:1030FE00831203131A08080001300A168A15E620F7
:10310E000A168A15080064008001840A0406031951
:10311E00003404068B280C30831603139900181202
:10312E008312031398171816080075087404730495
:10313E0072040319A328A428A6288030F5060800D7
:10314E00F300F2013A3073020318AE28AF28B72805
:10315E0030307302031CB428B528B728F201F20AE6
:10316E00720C0800F40083120313861774080A16F3
:10317E008A15D1210A168A158312031306171A30DF
:10318E00F300F30BC8280000831203130613080084
:10319E00831203131F083F3940389F008316031311
:1031AE009F121F129F13C330831203139F051F1408
:1031BE000C134230F200F20BE22800000800F5007A
:1031CE0083120313861375080A168A15D1210A165F
:1031DE008A158312031306170B30F4006230F300C6
:1031EE00F30BF728F40BF7280000831203130613D2
:1031FE000800F7007703031D052906291029760814
:10320E007F3EF80078080A168A15E6200A168A15F7
:10321E001F2902307706031D152916291F29760846
:10322E00BF3EF80078080A168A15E6200A168A1597
:10323E000800F3003429831203130C1E27292829B2
:10324E002229730884000A128A112A270A168A155F
:10325E0099000130F2007208F307730884000A1215
:10326E008A112A270A168A15003A031D3F2940297A
:10327E0022290800F601F701721C462947294D291B
:10328E007408F6070318F70A7508F70701300310DC
:10329E00F40DF50DFF3E031D4E2901300310F30C06
:1032AE00F20CFF3E031D552972087304031D60299D
:1032BE00612943297708F3007608F20008000330ED
:1032CE0083160317880089010330831603138500C4
:1032DE0086018030870088018901831203138501DE
:1032EE0086018701880189017030831603138F04CC
:1032FE000F148B170C178B16831203130C130B1052
:10330E0083160313811281110108F83903388100E5
:10331E00B3308312031381000B11080083120313C1
:10332E002008210403199C299D29CC29A401A40A53
:10333E00AB2901300310A00DA10DFF3E031DA129E5
:10334E000130FA007A08A407A11FAE29AF29A029DF
:10335E0021082302031DB52920082202031CB829C7
:10336E00B929BF292008A2022108031CA303A30226
:10337E0001300310A10CA00CFF3E031DC02901302B
:10338E00A402031DCB29CC29AF292308A1002208B2
:10339E00A0000800F200721CD529D629DA29831262
:1033AE0003130814DD29831203130810F21CE029FD
:1033BE00E129E3298814E4298810721DE729E829F8
:1033CE00EA290815EB290811F21DEE29EF29F1293A
:1033DE008815F2298811721EF529F629F829081682
:1033EE00F9290812F21EFC29FD29FF298816002A48
:1033FE008812721F032A042A062A0817072A08139E
:10340E00F21F0A2A0B2A0D2A88170E2A8813080083
:10341E00F701F801720873040319162A172A4E2AA7
:10342E00F901F90A252A01300310F20DF30DFF3EC2
:10343E00031D1B2A0130F6007608F907F31F282A10
:10344E00292A1A2A01300310F70DF80DFF3E031D2D
:10345E002A2A73087502031D362A72087402031C89
:10346E00392A3A2A412A7208F4027308031CF5031A
:10347E00F502771401300310F30CF20CFF3E031D1E
:10348E00422A0130F902031D4D2A4E2A292A7808B4
:10349E00F3007708F200080083120313A001A101C4
:1034AE007C2A20087507F8007608F7000318F70A3B
:1034BE00A01F622AF7037708F90079088312031315
:1034CE00FF00780884000A128A1120270A168A152E
:1034DE000A168A15B9200A168A15013083120313AB
:1034EE00A0070318A10A0030A10720087507F800ED
:1034FE007608F7000318F70AA01F862AF703770845
:10350E00F900790883120313FF00780884000A1269
:10351E008A1120270A168A15003A031D972A982A1F
:10352E00582A08000030720583120313A0000030E1
:10353E007305A10080307405A2007F307505A300CD
:10354E002308220421042004031DAE2AAF2AB72A21
:10355E000030F5000030F4000030F3000030F200CF
:10356E0000307605A00000307705A1008030780588
:10357E00A2007F307905A300230822042104200431
:10358E00031DCA2ACB2AD32A0030F9000030F800D6
:10359E000030F7000030F60079087506031DE12AA9
:1035AE0078087406031DE12A77087306031DE12AC5
:1035BE00760872060319E42AE52AE72A0310E82A98
:1035CE0003140800803083160313A3062708831202
:1035DE000313D90083160313260883120313D8008E
:1035EE0083160313250883120313D70083160313C0
:1035FE00240883120313D6008316031323088312A1
:10360E000313DD0083160313220883120313DC0059
:10361E0083160313210883120313DB00831603138F
:10362E00200883120313DA000A168A113F230A16A2
:10363E008A1583120313590883160313A3008312EA
:10364E000313580883160313A2008312031357089B
:10365E0083160313A1008312031356088316031354
:10366E00A000080075087404730472040319402B3B
:10367E00412B862B83120313A001A00A532B01307A
:10368E00FA000310F20DF30DF40DF50DFA0B482BA5
:10369E000130FA007A08A007F51F562B572B462B40
:1036AE0075087902031D652B74087802031D652BBE
:1036BE0073087702031D652B72087602031C682BB4
:1036CE00692B772B7208F6027308031C730FF7022F
:1036DE007408031C740FF8027508031C750FF902A9
:1036EE0001300310F50CF40CF30CF20CFF3E031D2D
:1036FE00782B0130A002031D852B862B572B7908C2
:10370E00F5007808F4007708F3007608F200080058
:10371E00F801F51F932B942B9B2BF409F509F40A52
:10372E000319F50AF801F80AF31F9E2B9F2BA42B01
:10373E00F209F309F20A0319F30A72087304031962
:10374E00A92BAA2BD92BF701F70AB82B013003109E
:10375E00F20DF30DFF3E031DAE2B0130F600760881
:10376E00F707F31FBB2BBC2BAD2B73087502031D84
:10377E00C22B72087402031CC52BC62BCC2B7208ED
:10378E00F4027308031CF503F50201300310F30C69
:10379E00F20CFF3E031DCD2B0130F702031DD82B7B
:1037AE00D92BBC2B78080319DD2BDE2BE32BF40968
:1037BE00F509F40A0319F50A7508F3007408F20006
:1037CE00080000300A168A15D1210A168A15023011
:1037DE00F8001E30F700B330F600F60BF42BF70BA3
:1037EE00F42BF80BF42BFB2B30300A168A15E6203F
:1037FE000A168A150D30F700FB30F600F60B052C75
:10380E00F70B052C0A2C30300A168A15E6200A16FC
:10381E008A150D30F600F60B122C30300A168A156A
:10382E00E6200A168A150D30F600F60B1C2C3830E1
:10383E000A168A15E6200A168A152430F600F60BAB
:10384E00262C000008300A168A15E6200A168A155C
:10385E002430F600F60B312C000001300A168A15C2
:10386E00E6200A168A152430F600F60B3C2C0000D2
:10387E0006300A168A15E6200A168A150C300A1624
:10388E008A15E6200A168A150800003083120313E3
:10389E00A3000030A2000030A1000030A000750887
:1038AE0074047304720403195D2C5E2CAB2CA401FA
:1038BE00A40A6E2C0130FA000310F20DF30DF40D74
:1038CE00F50DFA0B632C0130FA007A08A407F51FE8
:1038DE00712C722C612C0130FA000310A00DA10D79
:1038EE00A20DA30DFA0B742C75087902031D892CF9
:1038FE0074087802031D892C73087702031D892C26
:10390E0072087602031C8C2C8D2C9C2C7208F602ED
:10391E007308031C730FF7027408031C740FF8026C
:10392E007508031C750FF902201401300310F50CF5
:10393E00F40CF30CF20CFF3E031D9D2C0130A4027F
:10394E00031DAA2CAB2C722C2308F5002208F400C0
:10395E002108F3002008F200080083120313A501CA
:10396E00A11FBA2CBB2CC22CA009A109A00A0319B5
:10397E00A10AA501A50AA31FC52CC62CCF2CA209EE
:10398E00A309A20A0319A30A0130F9007908A506B2
:10399E00A601A701200821040319D62CD72C0E2D21
:1039AE00A401A40AE52C01300310A00DA10DFF3EC9
:1039BE00031DDB2C0130F9007908A407A11FE82CA8
:1039CE00E92CDA2C01300310A60DA70DFF3E031DC6
:1039DE00EA2C21082302031DF62C20082202031CC8
:1039EE00F92CFA2C012D2008A2022108031CA30396
:1039FE00A302261401300310A10CA00CFF3E031DE0
:103A0E00022D0130A402031D0D2D0E2DE92C2508CB
:103A1E000319122D132D182DA609A709A60A03198D
:103A2E00A70A2708A1002608A00008008312031386
:103A3E000C1E222D232D242D0C128C1E272D282DED
:103A4E00712D0A168A157F200A168A15FB002B3057
:103A5E007B06031D332D342D4F2D0030831603139B
:103A6E005F02FF3003195E0203183E2D3F2D462DD7
:103A7E000130DE070318DF0A0030DF076E2D5E0A05
:103A8E005F04031D4B2D4C2D6E2DDE01DF016E2DBF
:103A9E002D307B06031D542D552D6E2D83160313CD
:103AAE005E085F0403195C2D5D2D642D0130DE026E
:103ABE000030031CDF03DF026E2D5E085F04031D62
:103ACE00692D6A2D6E2DFF30DE000030DF0083126F
:103ADE0003138C120C1F742D752D762D0C130B1DCC
:103AEE00792D7A2D7D2DB33081000B110B1C802D7D
:103AFE00812D822D0B1071088A00700E8300FE0E30
:103B0E007E0E09000030720583120313A0000030F0
:103B1E007305A10080307405A2007F307505A300E7
:103B2E002308220421042004031D9E2D9F2DA72D62
:103B3E000030F5000030F4000030F3000030F200E9
:103B4E0000307605A00000307705A10080307805A2
:103B5E00A2007F307905A30023082204210420044B
:103B6E00031DBA2DBB2DC32D0030F9000030F80017
:103B7E000030F7000030F600F51FC62DC72DEB2DD7
:103B8E000030A0000030A1000030A2008030A30061
:103B9E007208A0027308031C730FD62DD72DA10235
:103BAE007408031C740FDC2DDD2DA2027508031C96
:103BBE00750FE22DE32DA3022308F5002208F40071
:103BCE002108F3002008F200F91FEE2DEF2D132E21
:103BDE000030A0000030A1000030A2008030A30011
:103BEE007608A0027708031C770FFE2DFF2DA10289
:103BFE007808031C780F042E052EA2027908031CE8
:103C0E00790F0A2E0B2EA3022308F9002208F800C2
:103C1E002108F7002008F6008030F5068030F906FE
:103C2E0079087502031D252E78087402031D252EB2
:103C3E0077087302031D252E760872020318282EAC
:103C4E00292E2B2E03102C2E03140800831203137F
:103C5E0049088039D3004908CA004A07DA00C81F4C
:103C6E00392E3A2E3B2E5A145A0803193F2E402E47
:103C7E00502E5A0A031D442E452E4D2E0030C900DB
:103C8E000030C8000030C7000030C600C817C90198
:103C9E00582E0030C9000030C8000030C700003078
:103CAE00C60045088039CA004A08D3064508CA002E
:103CBE004A07DB00C41F642E652E662E5B145B085C
:103CCE0003196A2E6B2E7B2E5B0A031D6F2E702E30
:103CDE00782E0030C5000030C4000030C300003024
:103CEE00C200C417C501832E0030C5000030C400C9
:103CFE000030C3000030C2004508440443044204AF
:103D0E00031D8A2E8B2EA42E0030C9000030C80051
:103D1E000030C7000030C6008030C8047F30C904B0
:103D2E005308CA004A08C9044908C5004808C40017
:103D3E004708C3004608C200FF2F5A08031DA82ECD
:103D4E00A92EB22E0030C5000030C4000030C300D2
:103D5E000030C200FF2F5A08CA00CB014B08CD001D
:103D6E005B084A02CC00031CCD034C087F3ED400F6
:103D7E004D080318013E003ED5004908D200480800
:103D8E00D1004708D0004608CF000030C9000030EF
:103D9E00C8000030C7000030C6000030D900003027
:103DAE00D8000030D7000030D600DB01282F5B088A
:103DBE000319E22EE32E032F0130CA000310CF0D9C
:103DCE00D00DD10DD20DCA0BE52E0130CA00031055
:103DDE00C60DC70DC80DC90DCA0BEE2ED91FF82E74
:103DEE00F92EFA2E46140130CA000310D60DD70D47
:103DFE00D80DD90DCA0BFC2E45085202031D112FEA
:103E0E0044085102031D112F43085002031D112FA8
:103E1E0042084F02031C142F152F242F5917420846
:103E2E00CF024308031C430FD0024408031C440F67
:103E3E00D1024508031C450FD2020130CA004A08C0
:103E4E00DB071A305B02031C2D2F2E2FDE2E52089D
:103E5E00510450044F040319352F362F552F561485
:103E6E00552F0130CA000310C60DC70DC80DC90D60
:103E7E00CA0B3A2FD91F442F452F462F4614013017
:103E8E00CA000310D60DD70DD80DD90DCA0B482F69
:103E9E00FF30D4070318D50AFF30D507C81F582F97
:103EAE00592F382FDB01D91F5D2F5E2F7A2FFF3050
:103EBE005605CA00FF305705CB00FF305805CC0021
:103ECE007F305905CD004D084C044B044A040319AC
:103EDE00712F722F752FDB01DB0A7A2F461C782F7C
:103EEE00792F7A2F722F5B0803197E2F7F2FB02F19
:103EFE000130C607003003180130C7070030031821
:103F0E000130C807003003180130C907491C902F33
:103F1E00912FB02F4608CA004708CB004808CC00A6
:103F2E004908CD000130CE004D0DCD0CCC0CCB0C84
:103F3E00CA0CCE0B9B2F4D08C9004C08C8004B086D
:103F4E00C7004A08C6000130D4070318D50A00304E
:103F5E00D5075508803AFF0080307F02031DB92F28
:103F6E00FF305402031CBC2FBD2FCB2FFF3083120A
:103F7E000313D4000030D5000030C9000030C80053
:103F8E000030C7000030C600831203135508803A74
:103F9E00FF0080307F02031DD62F0130540203181C
:103FAE00D92FDA2FE72F83120313D401D501003056
:103FBE00C9000030C8000030C7000030C600D30171
:103FCE00831203135408DA005A1CEE2FEF2FF12F31
:103FDE00C817F52F7F30CA004A08C8055A08CA000C
:103FEE0003104A0CC9005308CA004A08C9049B2E84
:0A3FFE000800FF3FFF3FFF3FFF3FB9
:04400E00D420FF3F7C
:00000001FF
